{
  "contractName": "Main",
  "abi": [
    {
      "inputs": [],
      "stateMutability": "nonpayable",
      "type": "constructor"
    },
    {
      "inputs": [],
      "name": "Admin",
      "outputs": [
        {
          "internalType": "address",
          "name": "",
          "type": "address"
        }
      ],
      "stateMutability": "view",
      "type": "function",
      "constant": true
    },
    {
      "inputs": [
        {
          "internalType": "address",
          "name": "_id",
          "type": "address"
        },
        {
          "internalType": "string",
          "name": "_name",
          "type": "string"
        },
        {
          "internalType": "uint32",
          "name": "_phonenumber",
          "type": "uint32"
        },
        {
          "internalType": "string",
          "name": "_gouvernorat",
          "type": "string"
        }
      ],
      "name": "signupProprietaire",
      "outputs": [],
      "stateMutability": "nonpayable",
      "type": "function"
    },
    {
      "inputs": [
        {
          "internalType": "address",
          "name": "_id",
          "type": "address"
        },
        {
          "internalType": "string",
          "name": "_name",
          "type": "string"
        },
        {
          "internalType": "uint32",
          "name": "_phonenumber",
          "type": "uint32"
        },
        {
          "internalType": "string",
          "name": "_gouvernorat",
          "type": "string"
        }
      ],
      "name": "signupLocataire",
      "outputs": [],
      "stateMutability": "nonpayable",
      "type": "function"
    },
    {
      "inputs": [
        {
          "internalType": "address",
          "name": "_id",
          "type": "address"
        },
        {
          "internalType": "string",
          "name": "_statut",
          "type": "string"
        }
      ],
      "name": "ProprietaireManage",
      "outputs": [],
      "stateMutability": "nonpayable",
      "type": "function"
    },
    {
      "inputs": [
        {
          "internalType": "address",
          "name": "_id",
          "type": "address"
        },
        {
          "internalType": "string",
          "name": "_statut",
          "type": "string"
        }
      ],
      "name": "LocataireManage",
      "outputs": [],
      "stateMutability": "nonpayable",
      "type": "function"
    },
    {
      "inputs": [],
      "name": "isAdminExist",
      "outputs": [
        {
          "internalType": "string",
          "name": "",
          "type": "string"
        }
      ],
      "stateMutability": "view",
      "type": "function",
      "constant": true
    },
    {
      "inputs": [],
      "name": "isProprietaireExist",
      "outputs": [
        {
          "internalType": "string",
          "name": "",
          "type": "string"
        }
      ],
      "stateMutability": "view",
      "type": "function",
      "constant": true
    },
    {
      "inputs": [],
      "name": "isLocataireExist",
      "outputs": [
        {
          "internalType": "string",
          "name": "",
          "type": "string"
        }
      ],
      "stateMutability": "view",
      "type": "function",
      "constant": true
    },
    {
      "inputs": [],
      "name": "AdministrateurName",
      "outputs": [
        {
          "internalType": "string",
          "name": "",
          "type": "string"
        }
      ],
      "stateMutability": "view",
      "type": "function",
      "constant": true
    },
    {
      "inputs": [],
      "name": "ProprietaireName",
      "outputs": [
        {
          "internalType": "string",
          "name": "",
          "type": "string"
        }
      ],
      "stateMutability": "view",
      "type": "function",
      "constant": true
    },
    {
      "inputs": [],
      "name": "LocataireName",
      "outputs": [
        {
          "internalType": "string",
          "name": "",
          "type": "string"
        }
      ],
      "stateMutability": "view",
      "type": "function",
      "constant": true
    },
    {
      "inputs": [
        {
          "internalType": "string",
          "name": "_longitude",
          "type": "string"
        },
        {
          "internalType": "string",
          "name": "_latitude",
          "type": "string"
        },
        {
          "internalType": "string",
          "name": "_duree_dispo",
          "type": "string"
        },
        {
          "internalType": "string",
          "name": "_date_debut",
          "type": "string"
        }
      ],
      "name": "setOffre",
      "outputs": [],
      "stateMutability": "nonpayable",
      "type": "function"
    },
    {
      "inputs": [],
      "name": "getOffre",
      "outputs": [
        {
          "internalType": "uint32[]",
          "name": "",
          "type": "uint32[]"
        },
        {
          "internalType": "string[]",
          "name": "",
          "type": "string[]"
        },
        {
          "internalType": "string[]",
          "name": "",
          "type": "string[]"
        },
        {
          "internalType": "string[]",
          "name": "",
          "type": "string[]"
        },
        {
          "internalType": "string[]",
          "name": "",
          "type": "string[]"
        },
        {
          "internalType": "string[]",
          "name": "",
          "type": "string[]"
        },
        {
          "internalType": "string[]",
          "name": "",
          "type": "string[]"
        }
      ],
      "stateMutability": "view",
      "type": "function",
      "constant": true
    },
    {
      "inputs": [
        {
          "internalType": "uint32",
          "name": "_number",
          "type": "uint32"
        },
        {
          "internalType": "string",
          "name": "_etat",
          "type": "string"
        }
      ],
      "name": "setEtat",
      "outputs": [],
      "stateMutability": "nonpayable",
      "type": "function"
    },
    {
      "inputs": [
        {
          "internalType": "uint32",
          "name": "_number",
          "type": "uint32"
        }
      ],
      "name": "setReservation",
      "outputs": [],
      "stateMutability": "nonpayable",
      "type": "function"
    },
    {
      "inputs": [],
      "name": "getIsReserved",
      "outputs": [
        {
          "internalType": "string",
          "name": "",
          "type": "string"
        }
      ],
      "stateMutability": "view",
      "type": "function",
      "constant": true
    },
    {
      "inputs": [
        {
          "internalType": "string",
          "name": "_matricule",
          "type": "string"
        },
        {
          "internalType": "string",
          "name": "_duree_location",
          "type": "string"
        }
      ],
      "name": "setMatricule",
      "outputs": [],
      "stateMutability": "nonpayable",
      "type": "function"
    },
    {
      "inputs": [],
      "name": "getReservedOffre",
      "outputs": [
        {
          "internalType": "string[]",
          "name": "",
          "type": "string[]"
        },
        {
          "internalType": "string[]",
          "name": "",
          "type": "string[]"
        },
        {
          "internalType": "string[]",
          "name": "",
          "type": "string[]"
        }
      ],
      "stateMutability": "view",
      "type": "function",
      "constant": true
    },
    {
      "inputs": [],
      "name": "Locataireliste",
      "outputs": [
        {
          "internalType": "address[]",
          "name": "",
          "type": "address[]"
        },
        {
          "internalType": "string[]",
          "name": "",
          "type": "string[]"
        },
        {
          "internalType": "uint32[]",
          "name": "",
          "type": "uint32[]"
        },
        {
          "internalType": "string[]",
          "name": "",
          "type": "string[]"
        },
        {
          "internalType": "string[]",
          "name": "",
          "type": "string[]"
        }
      ],
      "stateMutability": "view",
      "type": "function",
      "constant": true
    },
    {
      "inputs": [],
      "name": "Proprietaireliste",
      "outputs": [
        {
          "internalType": "address[]",
          "name": "",
          "type": "address[]"
        },
        {
          "internalType": "string[]",
          "name": "",
          "type": "string[]"
        },
        {
          "internalType": "uint32[]",
          "name": "",
          "type": "uint32[]"
        },
        {
          "internalType": "string[]",
          "name": "",
          "type": "string[]"
        },
        {
          "internalType": "string[]",
          "name": "",
          "type": "string[]"
        }
      ],
      "stateMutability": "view",
      "type": "function",
      "constant": true
    }
  ],
  "bytecode": "0x6080604052600080546001600160a01b0319167340cbb3ef77a39004e30cef330ee417a851fc29c91790556008805463ffffffff191660011790553480156200004757600080fd5b50604080518082018252600c81526b4d617269656d205475726b6960a01b6020808301918252600080546001600160a01b03168152600191829052939093209151620000989392909201916200040f565b506200010373053e4dfd5f63da6a0673e1c0616cb285c881d068604051806040016040528060078152602001664962726168696d60c81b81525062b8f47c604051806040016040528060088152602001674d6564656e696e6560c01b8152506200016d60201b60201c565b62000167731bc0dcef7831d75b6b384104049e1038054c5aa76040518060400160405280600481526020016344616c6960e01b81525062a98ac76040518060400160405280600581526020016454756e697360d81b8152506200029860201b60201c565b620004f1565b6001600160a01b038416600081815260026020908152604090912080546001600160a01b03191690921782558451620001ad92600101918601906200040f565b506001600160a01b0384166000908152600260208181526040909220908101805463ffffffff191663ffffffff86161790558251620001f5926003909201918401906200040f565b50604080518082018252600681526541637469766560d01b60208083019182526001600160a01b038816600090815260029091529290922090516200024192600490920191906200040f565b5050600780546001810182556000919091527fa66cc928b5edb82af9bd49922954155ab7b0942694bea4ce44661d9a8736c6880180546001600160a01b0319166001600160a01b0394909416939093179092555050565b6001600160a01b038416600081815260036020908152604090912080546001600160a01b03191690921782558451620002d892600101918601906200040f565b506001600160a01b038416600090815260036020818152604090922060028101805463ffffffff191663ffffffff8716179055835162000321939190920191908401906200040f565b50604080518082018252600681526541637469766560d01b60208083019182526001600160a01b038816600090815260039091529290922090516200036d92600490920191906200040f565b50604080518082018252600581526446616c736560d81b60208083019182526001600160a01b03881660009081526003909152929092209051620003b892600790920191906200040f565b5050600680546001810182556000919091527ff652222313e28459528d920b65115c16c04f3efc82aaedc97be59f3f377c0d3f0180546001600160a01b0319166001600160a01b0394909416939093179092555050565b8280546200041d90620004b5565b90600052602060002090601f0160209004810192826200044157600085556200048c565b82601f106200045c57805160ff19168380011785556200048c565b828001600101855582156200048c579182015b828111156200048c5782518255916020019190600101906200046f565b506200049a9291506200049e565b5090565b5b808211156200049a57600081556001016200049f565b600181811c90821680620004ca57607f821691505b602082108103620004eb57634e487b7160e01b600052602260045260246000fd5b50919050565b6132c780620005016000396000f3fe608060405234801561001057600080fd5b506004361061012c5760003560e01c80636b8947ee116100ad578063d7a76ced11610071578063d7a76ced1461024c578063daf6ccab14610254578063df67db201461025c578063e6dec34c14610264578063ff1b636d1461026c57600080fd5b80636b8947ee1461020357806378636db414610216578063a3b0110f1461021e578063ae2fa1e614610226578063bc8f6a251461023957600080fd5b80634fb97287116100f45780634fb97287146101a9578063528cedd8146101b15780635e808c28146101ca578063663e9af0146101dd5780636871f32d146101f057600080fd5b80630a88e443146101315780631d4a1b9f14610151578063210b10c51461016657806335f3a986146101815780634d16a0fa14610196575b600080fd5b610139610297565b60405161014893929190612c42565b60405180910390f35b61016461015f366004612d57565b6106e3565b005b61016e610808565b6040516101489796959493929190612e1c565b61018961113d565b6040516101489190612eb3565b6101646101a4366004612ecd565b611206565b610189611237565b6101b961128b565b604051610148959493929190612f1a565b6101646101d8366004612fb9565b611b20565b6101646101eb36600461303b565b611b4c565b6101646101fe366004612d57565b611d0c565b610164610211366004612fb9565b611e7b565b610189611ea1565b6101b9611ee2565b6101646102343660046130b8565b612765565b610164610247366004613111565b6127b2565b610189612911565b6101896129b5565b6101896129d6565b6101896129f8565b60005461027f906001600160a01b031681565b6040516001600160a01b039091168152602001610148565b606080606060006005805490506001600160401b038111156102bb576102bb612ca1565b6040519080825280602002602001820160405280156102ee57816020015b60608152602001906001900390816102d95790505b506005549091506000906001600160401b0381111561030f5761030f612ca1565b60405190808252806020026020018201604052801561034257816020015b606081526020019060019003908161032d5790505b506005549091506000906001600160401b0381111561036357610363612ca1565b60405190808252806020026020018201604052801561039657816020015b60608152602001906001900390816103815790505b50905060005b60055463ffffffff821610156106d6576004600060058363ffffffff16815481106103c9576103c961312c565b6000918252602080832060088304015463ffffffff6004600790941684026101000a9091041684528301939093526040909101902001805461040a90613142565b80601f016020809104026020016040519081016040528092919081815260200182805461043690613142565b80156104835780601f1061045857610100808354040283529160200191610483565b820191906000526020600020905b81548152906001019060200180831161046657829003601f168201915b5050505050848263ffffffff16815181106104a0576104a061312c565b60200260200101819052506004600060058363ffffffff16815481106104c8576104c861312c565b90600052602060002090600891828204019190066004029054906101000a900463ffffffff1663ffffffff1663ffffffff168152602001908152602001600020600a01805461051690613142565b80601f016020809104026020016040519081016040528092919081815260200182805461054290613142565b801561058f5780601f106105645761010080835404028352916020019161058f565b820191906000526020600020905b81548152906001019060200180831161057257829003601f168201915b5050505050838263ffffffff16815181106105ac576105ac61312c565b60200260200101819052506004600060058363ffffffff16815481106105d4576105d461312c565b90600052602060002090600891828204019190066004029054906101000a900463ffffffff1663ffffffff1663ffffffff168152602001908152602001600020600601805461062290613142565b80601f016020809104026020016040519081016040528092919081815260200182805461064e90613142565b801561069b5780601f106106705761010080835404028352916020019161069b565b820191906000526020600020905b81548152906001019060200180831161067e57829003601f168201915b5050505050828263ffffffff16815181106106b8576106b861312c565b602002602001018190525080806106ce90613192565b91505061039c565b5091959094509092509050565b6001600160a01b038416600081815260026020908152604090912080546001600160a01b031916909217825584516107219260010191860190612a19565b506001600160a01b0384166000908152600260208181526040909220908101805463ffffffff191663ffffffff8616179055825161076792600390920191840190612a19565b50604080518082018252600681526541637469766560d01b60208083019182526001600160a01b038816600090815260029091529290922090516107b19260049092019190612a19565b5050600780546001810182556000919091527fa66cc928b5edb82af9bd49922954155ab7b0942694bea4ce44661d9a8736c6880180546001600160a01b0319166001600160a01b0394909416939093179092555050565b606080606080606080606060006005805490506001600160401b0381111561083257610832612ca1565b60405190808252806020026020018201604052801561085b578160200160208202803683370190505b506005549091506000906001600160401b0381111561087c5761087c612ca1565b6040519080825280602002602001820160405280156108af57816020015b606081526020019060019003908161089a5790505b506005549091506000906001600160401b038111156108d0576108d0612ca1565b60405190808252806020026020018201604052801561090357816020015b60608152602001906001900390816108ee5790505b506005549091506000906001600160401b0381111561092457610924612ca1565b60405190808252806020026020018201604052801561095757816020015b60608152602001906001900390816109425790505b506005549091506000906001600160401b0381111561097857610978612ca1565b6040519080825280602002602001820160405280156109ab57816020015b60608152602001906001900390816109965790505b506005549091506000906001600160401b038111156109cc576109cc612ca1565b6040519080825280602002602001820160405280156109ff57816020015b60608152602001906001900390816109ea5790505b506005549091506000906001600160401b03811115610a2057610a20612ca1565b604051908082528060200260200182016040528015610a5357816020015b6060815260200190600190039081610a3e5790505b50905060005b60055463ffffffff821610156111265760058163ffffffff1681548110610a8257610a8261312c565b90600052602060002090600891828204019190066004029054906101000a900463ffffffff16888263ffffffff1681518110610ac057610ac061312c565b602002602001019063ffffffff16908163ffffffff16815250506004600060058363ffffffff1681548110610af757610af761312c565b90600052602060002090600891828204019190066004029054906101000a900463ffffffff1663ffffffff1663ffffffff1681526020019081526020016000206001018054610b4590613142565b80601f0160208091040260200160405190810160405280929190818152602001828054610b7190613142565b8015610bbe5780601f10610b9357610100808354040283529160200191610bbe565b820191906000526020600020905b815481529060010190602001808311610ba157829003601f168201915b5050505050878263ffffffff1681518110610bdb57610bdb61312c565b60200260200101819052506004600060058363ffffffff1681548110610c0357610c0361312c565b90600052602060002090600891828204019190066004029054906101000a900463ffffffff1663ffffffff1663ffffffff1681526020019081526020016000206002018054610c5190613142565b80601f0160208091040260200160405190810160405280929190818152602001828054610c7d90613142565b8015610cca5780601f10610c9f57610100808354040283529160200191610cca565b820191906000526020600020905b815481529060010190602001808311610cad57829003601f168201915b5050505050868263ffffffff1681518110610ce757610ce761312c565b60200260200101819052506004600060058363ffffffff1681548110610d0f57610d0f61312c565b90600052602060002090600891828204019190066004029054906101000a900463ffffffff1663ffffffff1663ffffffff1681526020019081526020016000206003018054610d5d90613142565b80601f0160208091040260200160405190810160405280929190818152602001828054610d8990613142565b8015610dd65780601f10610dab57610100808354040283529160200191610dd6565b820191906000526020600020905b815481529060010190602001808311610db957829003601f168201915b5050505050858263ffffffff1681518110610df357610df361312c565b60200260200101819052506004600060058363ffffffff1681548110610e1b57610e1b61312c565b90600052602060002090600891828204019190066004029054906101000a900463ffffffff1663ffffffff1663ffffffff1681526020019081526020016000206005018054610e6990613142565b80601f0160208091040260200160405190810160405280929190818152602001828054610e9590613142565b8015610ee25780601f10610eb757610100808354040283529160200191610ee2565b820191906000526020600020905b815481529060010190602001808311610ec557829003601f168201915b5050505050848263ffffffff1681518110610eff57610eff61312c565b60200260200101819052506004600060058363ffffffff1681548110610f2757610f2761312c565b6000918252602080832060088304015460079283166004026101000a900463ffffffff16845283019390935260409091019020018054610f6690613142565b80601f0160208091040260200160405190810160405280929190818152602001828054610f9290613142565b8015610fdf5780601f10610fb457610100808354040283529160200191610fdf565b820191906000526020600020905b815481529060010190602001808311610fc257829003601f168201915b5050505050838263ffffffff1681518110610ffc57610ffc61312c565b60200260200101819052506004600060058363ffffffff16815481106110245761102461312c565b90600052602060002090600891828204019190066004029054906101000a900463ffffffff1663ffffffff1663ffffffff168152602001908152602001600020600801805461107290613142565b80601f016020809104026020016040519081016040528092919081815260200182805461109e90613142565b80156110eb5780601f106110c0576101008083540402835291602001916110eb565b820191906000526020600020905b8154815290600101906020018083116110ce57829003601f168201915b5050505050828263ffffffff16815181106111085761110861312c565b6020026020010181905250808061111e90613192565b915050610a59565b50959d949c50929a50909850965094509092509050565b3360009081526003602052604090208054606091906001600160a01b0316158015906111bc57506040516541637469766560d01b60208201526026015b60405160208183030381529060405280519060200120816004016040516020016111a491906131b5565b60405160208183030381529060405280519060200120145b156111e15750506040805180820190915260048152637472756560e01b602082015290565b505060408051808201909152600581526466616c736560d81b602082015290565b5090565b63ffffffff82166000908152600460209081526040909120825161123292600990920191840190612a19565b505050565b6000546060906001600160a01b0316330361126b57506040805180820190915260048152637472756560e01b602082015290565b5060408051808201909152600581526466616c736560d81b602082015290565b606080606080606060006006805490506001600160401b038111156112b2576112b2612ca1565b6040519080825280602002602001820160405280156112db578160200160208202803683370190505b506006549091506000906001600160401b038111156112fc576112fc612ca1565b60405190808252806020026020018201604052801561132f57816020015b606081526020019060019003908161131a5790505b506006549091506000906001600160401b0381111561135057611350612ca1565b604051908082528060200260200182016040528015611379578160200160208202803683370190505b506006549091506000906001600160401b0381111561139a5761139a612ca1565b6040519080825280602002602001820160405280156113cd57816020015b60608152602001906001900390816113b85790505b506006549091506000906001600160401b038111156113ee576113ee612ca1565b60405190808252806020026020018201604052801561142157816020015b606081526020019060019003908161140c5790505b50905060005b600654811015611b0e576000546001600160a01b031633036117cd57600681815481106114565761145661312c565b9060005260206000200160009054906101000a90046001600160a01b03168682815181106114865761148661312c565b60200260200101906001600160a01b031690816001600160a01b03168152505060036000600683815481106114bd576114bd61312c565b60009182526020808320909101546001600160a01b03168352820192909252604001902060010180546114ef90613142565b80601f016020809104026020016040519081016040528092919081815260200182805461151b90613142565b80156115685780601f1061153d57610100808354040283529160200191611568565b820191906000526020600020905b81548152906001019060200180831161154b57829003601f168201915b505050505085828151811061157f5761157f61312c565b602002602001018190525060036000600683815481106115a1576115a161312c565b60009182526020808320909101546001600160a01b03168352820192909252604001902060020154845163ffffffff909116908590839081106115e6576115e661312c565b602002602001019063ffffffff16908163ffffffff168152505060036000600683815481106116175761161761312c565b60009182526020808320909101546001600160a01b031683528201929092526040019020600301805461164990613142565b80601f016020809104026020016040519081016040528092919081815260200182805461167590613142565b80156116c25780601f10611697576101008083540402835291602001916116c2565b820191906000526020600020905b8154815290600101906020018083116116a557829003601f168201915b50505050508382815181106116d9576116d961312c565b602002602001018190525060036000600683815481106116fb576116fb61312c565b60009182526020808320909101546001600160a01b031683528201929092526040019020600401805461172d90613142565b80601f016020809104026020016040519081016040528092919081815260200182805461175990613142565b80156117a65780601f1061177b576101008083540402835291602001916117a6565b820191906000526020600020905b81548152906001019060200180831161178957829003601f168201915b50505050508282815181106117bd576117bd61312c565b6020026020010181905250611afc565b604051684465626c6f7175656560b81b60208201526029016040516020818303038152906040528051906020012060036000600684815481106118125761181261312c565b60009182526020808320909101546001600160a01b031683528281019390935260409182019020905161184b92600490920191016131b5565b6040516020818303038152906040528051906020012003611afc57600681815481106118795761187961312c565b9060005260206000200160009054906101000a90046001600160a01b03168682815181106118a9576118a961312c565b60200260200101906001600160a01b031690816001600160a01b03168152505060036000600683815481106118e0576118e061312c565b60009182526020808320909101546001600160a01b031683528201929092526040019020600101805461191290613142565b80601f016020809104026020016040519081016040528092919081815260200182805461193e90613142565b801561198b5780601f106119605761010080835404028352916020019161198b565b820191906000526020600020905b81548152906001019060200180831161196e57829003601f168201915b50505050508582815181106119a2576119a261312c565b602002602001018190525060036000600683815481106119c4576119c461312c565b60009182526020808320909101546001600160a01b03168352820192909252604001902060020154845163ffffffff90911690859083908110611a0957611a0961312c565b602002602001019063ffffffff16908163ffffffff16815250506003600060068381548110611a3a57611a3a61312c565b60009182526020808320909101546001600160a01b0316835282019290925260400190206003018054611a6c90613142565b80601f0160208091040260200160405190810160405280929190818152602001828054611a9890613142565b8015611ae55780601f10611aba57610100808354040283529160200191611ae5565b820191906000526020600020905b815481529060010190602001808311611ac857829003601f168201915b50505050508382815181106117bd576117bd61312c565b80611b0681613250565b915050611427565b50939992985090965094509092509050565b6001600160a01b0383166000908152600360205260409020611b46906004018383612a99565b50505050565b6008805463ffffffff9081166000818152600460209081526040808320805463ffffffff19169094179093559354909216825290208551611b969260019290920191870190612a19565b5060085463ffffffff1660009081526004602090815260409091208451611bc592600290920191860190612a19565b5060085463ffffffff1660009081526004602090815260409091208351611bf492600390920191850190612a19565b5060085463ffffffff1660009081526004602090815260409091208251611c2392600590920191840190612a19565b506040805180820182526012815271506c616365206e6f6e20726573657276656560701b602080830191825260085463ffffffff1660009081526004909152929092209051611c789260079092019190612a19565b5060088054600580546001808201835560009283527f036b6384b5eca791c62761152d0c79bb0604c104a5fb6f4eb0703f3154bb3db085830401805463ffffffff60079094166004026101000a8481021990911695841602949094179093558354929392611ce891859116613269565b92506101000a81548163ffffffff021916908363ffffffff16021790555050505050565b6001600160a01b038416600081815260036020908152604090912080546001600160a01b03191690921782558451611d4a9260010191860190612a19565b506001600160a01b038416600090815260036020818152604090922060028101805463ffffffff191663ffffffff87161790558351611d9193919092019190840190612a19565b50604080518082018252600681526541637469766560d01b60208083019182526001600160a01b03881660009081526003909152929092209051611ddb9260049092019190612a19565b50604080518082018252600581526446616c736560d81b60208083019182526001600160a01b03881660009081526003909152929092209051611e249260079092019190612a19565b5050600680546001810182556000919091527ff652222313e28459528d920b65115c16c04f3efc82aaedc97be59f3f377c0d3f0180546001600160a01b0319166001600160a01b0394909416939093179092555050565b6001600160a01b0383166000908152600260205260409020611b46906004018383612a99565b3360009081526002602052604090208054606091906001600160a01b0316158015906111bc57506040516541637469766560d01b602082015260260161117a565b606080606080606060006007805490506001600160401b03811115611f0957611f09612ca1565b604051908082528060200260200182016040528015611f32578160200160208202803683370190505b506007549091506000906001600160401b03811115611f5357611f53612ca1565b604051908082528060200260200182016040528015611f8657816020015b6060815260200190600190039081611f715790505b506007549091506000906001600160401b03811115611fa757611fa7612ca1565b604051908082528060200260200182016040528015611fd0578160200160208202803683370190505b506007549091506000906001600160401b03811115611ff157611ff1612ca1565b60405190808252806020026020018201604052801561202457816020015b606081526020019060019003908161200f5790505b506007549091506000906001600160401b0381111561204557612045612ca1565b60405190808252806020026020018201604052801561207857816020015b60608152602001906001900390816120635790505b50905060005b600754811015611b0e576000546001600160a01b0316330361242457600781815481106120ad576120ad61312c565b9060005260206000200160009054906101000a90046001600160a01b03168682815181106120dd576120dd61312c565b60200260200101906001600160a01b031690816001600160a01b03168152505060026000600783815481106121145761211461312c565b60009182526020808320909101546001600160a01b031683528201929092526040019020600101805461214690613142565b80601f016020809104026020016040519081016040528092919081815260200182805461217290613142565b80156121bf5780601f10612194576101008083540402835291602001916121bf565b820191906000526020600020905b8154815290600101906020018083116121a257829003601f168201915b50505050508582815181106121d6576121d661312c565b602002602001018190525060026000600783815481106121f8576121f861312c565b60009182526020808320909101546001600160a01b03168352820192909252604001902060020154845163ffffffff9091169085908390811061223d5761223d61312c565b602002602001019063ffffffff16908163ffffffff1681525050600260006007838154811061226e5761226e61312c565b60009182526020808320909101546001600160a01b03168352820192909252604001902060030180546122a090613142565b80601f01602080910402602001604051908101604052809291908181526020018280546122cc90613142565b80156123195780601f106122ee57610100808354040283529160200191612319565b820191906000526020600020905b8154815290600101906020018083116122fc57829003601f168201915b50505050508382815181106123305761233061312c565b602002602001018190525060026000600783815481106123525761235261312c565b60009182526020808320909101546001600160a01b031683528201929092526040019020600401805461238490613142565b80601f01602080910402602001604051908101604052809291908181526020018280546123b090613142565b80156123fd5780601f106123d2576101008083540402835291602001916123fd565b820191906000526020600020905b8154815290600101906020018083116123e057829003601f168201915b50505050508282815181106124145761241461312c565b6020026020010181905250612753565b604051684465626c6f7175656560b81b60208201526029016040516020818303038152906040528051906020012060026000600784815481106124695761246961312c565b60009182526020808320909101546001600160a01b03168352828101939093526040918201902090516124a292600490920191016131b5565b604051602081830303815290604052805190602001200361275357600781815481106124d0576124d061312c565b9060005260206000200160009054906101000a90046001600160a01b03168682815181106125005761250061312c565b60200260200101906001600160a01b031690816001600160a01b03168152505060026000600783815481106125375761253761312c565b60009182526020808320909101546001600160a01b031683528201929092526040019020600101805461256990613142565b80601f016020809104026020016040519081016040528092919081815260200182805461259590613142565b80156125e25780601f106125b7576101008083540402835291602001916125e2565b820191906000526020600020905b8154815290600101906020018083116125c557829003601f168201915b50505050508582815181106125f9576125f961312c565b6020026020010181905250600260006007838154811061261b5761261b61312c565b60009182526020808320909101546001600160a01b03168352820192909252604001902060020154845163ffffffff909116908590839081106126605761266061312c565b602002602001019063ffffffff16908163ffffffff168152505060026000600783815481106126915761269161312c565b60009182526020808320909101546001600160a01b03168352820192909252604001902060030180546126c390613142565b80601f01602080910402602001604051908101604052809291908181526020018280546126ef90613142565b801561273c5780601f106127115761010080835404028352916020019161273c565b820191906000526020600020905b81548152906001019060200180831161271f57829003601f168201915b50505050508382815181106124145761241461312c565b8061275d81613250565b91505061207e565b336000908152600360209081526040909120835161278b92600590920191850190612a19565b50336000908152600360209081526040909120825161123292600690920191840190612a19565b604080518082018252600e81526d506c61636520726573657276656560901b602080830191825263ffffffff8516600090815260049091529290922090516128009260079092019190612a19565b5033600090815260036020908152604080832063ffffffff8516845260049092529091206001909101805460089092019161283a90613142565b612845929190612b0d565b5033600090815260036020908152604080832063ffffffff8516845260049092529091206005909101805460069092019161287f90613142565b61288a929190612b0d565b5033600090815260036020908152604080832063ffffffff8516845260049283905292206006909201805492909101916128c390613142565b6128ce929190612b0d565b5060408051808201825260048152635472756560e01b6020808301918252336000908152600390915292909220905161290d9260079092019190612a19565b5050565b33600090815260026020526040902060010180546060919061293290613142565b80601f016020809104026020016040519081016040528092919081815260200182805461295e90613142565b80156129ab5780601f10612980576101008083540402835291602001916129ab565b820191906000526020600020905b81548152906001019060200180831161298e57829003601f168201915b5050505050905090565b33600090815260036020526040902060070180546060919061293290613142565b3360009081526001602081905260409091200180546060919061293290613142565b33600090815260036020526040902060010180546060919061293290613142565b828054612a2590613142565b90600052602060002090601f016020900481019282612a475760008555612a8d565b82601f10612a6057805160ff1916838001178555612a8d565b82800160010185558215612a8d579182015b82811115612a8d578251825591602001919060010190612a72565b50611202929150612b88565b828054612aa590613142565b90600052602060002090601f016020900481019282612ac75760008555612a8d565b82601f10612ae05782800160ff19823516178555612a8d565b82800160010185558215612a8d579182015b82811115612a8d578235825591602001919060010190612af2565b828054612b1990613142565b90600052602060002090601f016020900481019282612b3b5760008555612a8d565b82601f10612b4c5780548555612a8d565b82800160010185558215612a8d57600052602060002091601f016020900482015b82811115612a8d578254825591600101919060010190612b6d565b5b808211156112025760008155600101612b89565b6000815180845260005b81811015612bc357602081850181015186830182015201612ba7565b81811115612bd5576000602083870101525b50601f01601f19169290920160200192915050565b600082825180855260208086019550808260051b84010181860160005b84811015612c3557601f19868403018952612c23838351612b9d565b98840198925090830190600101612c07565b5090979650505050505050565b606081526000612c556060830186612bea565b8281036020840152612c678186612bea565b90508281036040840152612c7b8185612bea565b9695505050505050565b80356001600160a01b0381168114612c9c57600080fd5b919050565b634e487b7160e01b600052604160045260246000fd5b600082601f830112612cc857600080fd5b81356001600160401b0380821115612ce257612ce2612ca1565b604051601f8301601f19908116603f01168101908282118183101715612d0a57612d0a612ca1565b81604052838152866020858801011115612d2357600080fd5b836020870160208301376000602085830101528094505050505092915050565b803563ffffffff81168114612c9c57600080fd5b60008060008060808587031215612d6d57600080fd5b612d7685612c85565b935060208501356001600160401b0380821115612d9257600080fd5b612d9e88838901612cb7565b9450612dac60408801612d43565b93506060870135915080821115612dc257600080fd5b50612dcf87828801612cb7565b91505092959194509250565b600081518084526020808501945080840160005b83811015612e1157815163ffffffff1687529582019590820190600101612def565b509495945050505050565b60e081526000612e2f60e083018a612ddb565b8281036020840152612e41818a612bea565b90508281036040840152612e558189612bea565b90508281036060840152612e698188612bea565b90508281036080840152612e7d8187612bea565b905082810360a0840152612e918186612bea565b905082810360c0840152612ea58185612bea565b9a9950505050505050505050565b602081526000612ec66020830184612b9d565b9392505050565b60008060408385031215612ee057600080fd5b612ee983612d43565b915060208301356001600160401b03811115612f0457600080fd5b612f1085828601612cb7565b9150509250929050565b60a0808252865190820181905260009060209060c0840190828a01845b82811015612f5c5781516001600160a01b031684529284019290840190600101612f37565b50505083810382850152612f708189612bea565b9150508281036040840152612f858187612ddb565b90508281036060840152612f998186612bea565b90508281036080840152612fad8185612bea565b98975050505050505050565b600080600060408486031215612fce57600080fd5b612fd784612c85565b925060208401356001600160401b0380821115612ff357600080fd5b818601915086601f83011261300757600080fd5b81358181111561301657600080fd5b87602082850101111561302857600080fd5b6020830194508093505050509250925092565b6000806000806080858703121561305157600080fd5b84356001600160401b038082111561306857600080fd5b61307488838901612cb7565b9550602087013591508082111561308a57600080fd5b61309688838901612cb7565b945060408701359150808211156130ac57600080fd5b612dac88838901612cb7565b600080604083850312156130cb57600080fd5b82356001600160401b03808211156130e257600080fd5b6130ee86838701612cb7565b9350602085013591508082111561310457600080fd5b50612f1085828601612cb7565b60006020828403121561312357600080fd5b612ec682612d43565b634e487b7160e01b600052603260045260246000fd5b600181811c9082168061315657607f821691505b60208210810361317657634e487b7160e01b600052602260045260246000fd5b50919050565b634e487b7160e01b600052601160045260246000fd5b600063ffffffff8083168181036131ab576131ab61317c565b6001019392505050565b600080835481600182811c9150808316806131d157607f831692505b602080841082036131f057634e487b7160e01b86526022600452602486fd5b818015613204576001811461321557613242565b60ff19861689528489019650613242565b60008a81526020902060005b8681101561323a5781548b820152908501908301613221565b505084890196505b509498975050505050505050565b6000600182016132625761326261317c565b5060010190565b600063ffffffff8083168185168083038211156132885761328861317c565b0194935050505056fea26469706673582212207bccc1964a482add42a6c56cfabfc05d8a0b681e514ec447d2bc022c79a4842f64736f6c634300080d0033",
  "immutableReferences": {},
  "source": "// SPDX-License-Identifier: GPL-3.0\n\npragma solidity >=0.7.0 <0.9.0;\n\ncontract Main {\n    address public Admin = 0x40CbB3EF77a39004E30CEF330EE417a851fC29C9;\n    mapping(address => _Admin) internal Admins;\n    mapping(address => _Proprietaire) internal Proprietaires;\n    mapping(address => _Locataire) internal Locataires;\n    mapping(uint32 => _Place) internal Places;\n\n    struct _Admin {\n        address Admin_id;\n        string name;\n    }\n\n    struct _Proprietaire {\n        address Proprietaire_id;\n        string name;\n        uint32 phonenumber;\n        string gouvernorat;\n        string statut;\n    }\n\n    struct _Locataire {\n        address Locataire_id;\n        string name;\n        uint32 phonenumber;\n        string gouvernorat;\n        string statut;\n        string matricule;\n        string duree_location;\n        string IsReserved;\n    }\n\n    struct _Place {\n        uint32 n;\n        string longitude;\n        string latitude;\n        string duree_dispo;\n        string duree_location;\n        string date_debut;\n        string matricule;\n        string reservation;\n        string locataire_name;\n        string etat;\n        string statut_rasp;\n    }\n\n    uint32[] Number;\n    address[] Locatairelist;\n    address[] Proprietairelist;\n\n    uint32 number = 1;\n\n    constructor() {\n        Admins[Admin].name = \"Mariem Turki\";\n        signupProprietaire(\n            0x053e4dfD5f63Da6a0673E1c0616Cb285C881d068,\n            \"Ibrahim\",\n            12121212,\n            \"Medenine\"\n        );\n        signupLocataire(\n            0x1Bc0dCEf7831d75B6b384104049e1038054c5AA7,\n            \"Dali\",\n            11111111,\n            \"Tunis\"\n        );\n    }\n\n    function signupProprietaire(\n        address _id,\n        string memory _name,\n        uint32 _phonenumber,\n        string memory _gouvernorat\n    ) public {\n        Proprietaires[_id].Proprietaire_id = _id;\n        Proprietaires[_id].name = _name;\n        Proprietaires[_id].phonenumber = _phonenumber;\n        Proprietaires[_id].gouvernorat = _gouvernorat;\n        Proprietaires[_id].statut = \"Active\";\n        Proprietairelist.push(_id);\n    }\n\n    function signupLocataire(\n        address _id,\n        string memory _name,\n        uint32 _phonenumber,\n        string memory _gouvernorat\n    ) public {\n        Locataires[_id].Locataire_id = _id;\n        Locataires[_id].name = _name;\n        Locataires[_id].phonenumber = _phonenumber;\n        Locataires[_id].gouvernorat = _gouvernorat;\n        Locataires[_id].statut = \"Active\";\n        Locataires[_id].IsReserved = \"False\";\n        Locatairelist.push(_id);\n    }\n\n    function ProprietaireManage(address _id, string calldata _statut) external {\n        Proprietaires[_id].statut = _statut;\n    }\n\n    function LocataireManage(address _id, string calldata _statut) external {\n        Locataires[_id].statut = _statut;\n    }\n\n    function isAdminExist() external view returns (string memory) {\n        if (msg.sender == Admin) {\n            return \"true\";\n        } else {\n            return \"false\";\n        }\n    }\n\n    function isProprietaireExist() external view returns (string memory) {\n        _Proprietaire storage p = Proprietaires[msg.sender];\n        if (\n            (p.Proprietaire_id > address(0x0)) &&\n            (keccak256(abi.encodePacked(p.statut)) ==\n                keccak256(abi.encodePacked(\"Active\")))\n        ) {\n            return \"true\";\n        } else {\n            return \"false\";\n        }\n    }\n\n    function isLocataireExist() external view returns (string memory) {\n        _Locataire storage l = Locataires[msg.sender];\n        if (\n            (l.Locataire_id > address(0x0)) &&\n            (keccak256(abi.encodePacked(l.statut)) ==\n                keccak256(abi.encodePacked(\"Active\")))\n        ) {\n            return \"true\";\n        } else {\n            return \"false\";\n        }\n    }\n\n    function AdministrateurName() external view returns (string memory) {\n        return Admins[msg.sender].name;\n    }\n\n    function ProprietaireName() external view returns (string memory) {\n        return Proprietaires[msg.sender].name;\n    }\n\n    function LocataireName() external view returns (string memory) {\n        return Locataires[msg.sender].name;\n    }\n\n    function setOffre(\n        string memory _longitude,\n        string memory _latitude,\n        string memory _duree_dispo,\n        string memory _date_debut\n    ) external {\n        Places[number].n = number;\n        Places[number].longitude = _longitude;\n        Places[number].latitude = _latitude;\n        Places[number].duree_dispo = _duree_dispo;\n        Places[number].date_debut = _date_debut;\n        Places[number].reservation = \"Place non reservee\";\n        Number.push(number);\n        number += 1;\n    }\n\n    function getOffre()\n        external\n        view\n        returns (\n            uint32[] memory,\n            string[] memory,\n            string[] memory,\n            string[] memory,\n            string[] memory,\n            string[] memory,\n            string[] memory\n        )\n    {\n        uint32[] memory n = new uint32[](Number.length);\n        string[] memory longitude = new string[](Number.length);\n        string[] memory latitude = new string[](Number.length);\n        string[] memory duree_dispo = new string[](Number.length);\n        string[] memory date_debut = new string[](Number.length);\n        string[] memory reservation = new string[](Number.length);\n        string[] memory locatairename = new string[](Number.length);\n\n        for (uint32 i = 0; i < Number.length; i++) {\n            n[i] = Number[i];\n            longitude[i] = Places[Number[i]].longitude;\n            latitude[i] = Places[Number[i]].latitude;\n            duree_dispo[i] = Places[Number[i]].duree_dispo;\n            date_debut[i] = Places[Number[i]].date_debut;\n            reservation[i] = Places[Number[i]].reservation;\n            locatairename[i] = Places[Number[i]].locataire_name;\n        }\n        return (\n            n,\n            longitude,\n            latitude,\n            duree_dispo,\n            date_debut,\n            reservation,\n            locatairename\n        );\n    }\n\n    function setEtat(uint32 _number, string memory _etat) external {\n        Places[_number].etat = _etat;\n    }\n\n    function setReservation(uint32 _number) external {\n        Places[_number].reservation = \"Place reservee\";\n        Places[_number].locataire_name = Locataires[msg.sender].name;\n        Places[_number].matricule = Locataires[msg.sender].matricule;\n        Places[_number].duree_location = Locataires[msg.sender].duree_location;\n        Locataires[msg.sender].IsReserved = \"True\";\n    }\n    function getIsReserved() external view returns (string memory) {\n        return Locataires[msg.sender].IsReserved;\n    }\n\n    function setMatricule(\n        string memory _matricule,\n        string memory _duree_location\n    ) public {\n        Locataires[msg.sender].matricule = _matricule;\n        Locataires[msg.sender].duree_location = _duree_location;\n    }\n\n    function getReservedOffre()\n        external\n        view\n        returns (\n            string[] memory,\n            string[] memory,\n            string[] memory\n        )\n    {\n        string[] memory duree_location = new string[](Number.length);\n        string[] memory statut_rasp = new string[](Number.length);\n        string[] memory matricule = new string[](Number.length);\n\n        for (uint32 i = 0; i < Number.length; i++) {\n            {\n                duree_location[i] = Places[Number[i]].duree_location;\n                statut_rasp[i] = Places[Number[i]].statut_rasp;\n                matricule[i] = Places[Number[i]].matricule;\n            }\n        }\n        return (duree_location, statut_rasp, matricule);\n    }\n\n    function Locataireliste()\n        external\n        view\n        returns (\n            address[] memory,\n            string[] memory,\n            uint32[] memory,\n            string[] memory,\n            string[] memory\n        )\n    {\n        address[] memory id = new address[](Locatairelist.length);\n        string[] memory name = new string[](Locatairelist.length);\n        uint32[] memory phonenumber = new uint32[](Locatairelist.length);\n        string[] memory gouvernorat = new string[](Locatairelist.length);\n        string[] memory statut = new string[](Locatairelist.length);\n        for (uint256 i = 0; i < Locatairelist.length; i++) {\n            if (msg.sender == Admin) {\n                id[i] = Locatairelist[i];\n                name[i] = Locataires[Locatairelist[i]].name;\n                phonenumber[i] = Locataires[Locatairelist[i]].phonenumber;\n                gouvernorat[i] = Locataires[Locatairelist[i]].gouvernorat;\n                statut[i] = Locataires[Locatairelist[i]].statut;\n            } else {\n                if (\n                    keccak256(\n                        abi.encodePacked(Locataires[Locatairelist[i]].statut)\n                    ) == keccak256(abi.encodePacked(\"Debloquee\"))\n                ) {\n                    id[i] = Locatairelist[i];\n                    name[i] = Locataires[Locatairelist[i]].name;\n                    phonenumber[i] = Locataires[Locatairelist[i]].phonenumber;\n                    gouvernorat[i] = Locataires[Locatairelist[i]].gouvernorat;\n                } else {\n                    continue;\n                }\n            }\n        }\n        return (id, name, phonenumber, gouvernorat, statut);\n    }\n\n    function Proprietaireliste()\n        external\n        view\n        returns (\n            address[] memory,\n            string[] memory,\n            uint32[] memory,\n            string[] memory,\n            string[] memory\n        )\n    {\n        address[] memory id = new address[](Proprietairelist.length);\n        string[] memory name = new string[](Proprietairelist.length);\n        uint32[] memory phonenumber = new uint32[](Proprietairelist.length);\n        string[] memory gouvernorat = new string[](Proprietairelist.length);\n        string[] memory statut = new string[](Proprietairelist.length);\n        for (uint256 i = 0; i < Proprietairelist.length; i++) {\n            if (msg.sender == Admin) {\n                id[i] = Proprietairelist[i];\n                name[i] = Proprietaires[Proprietairelist[i]].name;\n                phonenumber[i] = Proprietaires[Proprietairelist[i]].phonenumber;\n                gouvernorat[i] = Proprietaires[Proprietairelist[i]].gouvernorat;\n                statut[i] = Proprietaires[Proprietairelist[i]].statut;\n            } else {\n                if (\n                    keccak256(\n                        abi.encodePacked(\n                            Proprietaires[Proprietairelist[i]].statut\n                        )\n                    ) == keccak256(abi.encodePacked(\"Debloquee\"))\n                ) {\n                    id[i] = Proprietairelist[i];\n                    name[i] = Proprietaires[Proprietairelist[i]].name;\n                    phonenumber[i] = Proprietaires[Proprietairelist[i]]\n                        .phonenumber;\n                    gouvernorat[i] = Proprietaires[Proprietairelist[i]]\n                        .gouvernorat;\n                } else {\n                    continue;\n                }\n            }\n        }\n        return (id, name, phonenumber, gouvernorat, statut);\n    }\n}\n",
  "sourcePath": "D:\\PFE\\project\\contracts\\Main.sol",
  "compiler": {
    "name": "solc",
    "version": "0.8.13+commit.abaa5c0e.Emscripten.clang"
  },
  "schemaVersion": "3.4.4",
  "updatedAt": "2022-06-09T20:45:14.026Z",
  "networkType": "ethereum",
  "devdoc": {
    "kind": "dev",
    "methods": {},
    "version": 1
  },
  "userdoc": {
    "kind": "user",
    "methods": {},
    "version": 1
  }
}